{
  "contractName": "deCapital",
  "abi": [
    {
      "constant": true,
      "inputs": [
        {
          "name": "",
          "type": "uint256"
        }
      ],
      "name": "loans",
      "outputs": [
        {
          "name": "loanId",
          "type": "uint256"
        },
        {
          "name": "amount",
          "type": "uint256"
        },
        {
          "name": "rate",
          "type": "uint256"
        },
        {
          "name": "borrower",
          "type": "address"
        },
        {
          "name": "lender",
          "type": "address"
        }
      ],
      "payable": false,
      "stateMutability": "view",
      "type": "function"
    },
    {
      "inputs": [],
      "payable": false,
      "stateMutability": "nonpayable",
      "type": "constructor"
    },
    {
      "anonymous": false,
      "inputs": [
        {
          "indexed": false,
          "name": "loanId",
          "type": "uint256"
        }
      ],
      "name": "Applied",
      "type": "event"
    },
    {
      "constant": false,
      "inputs": [
        {
          "name": "_amount",
          "type": "uint256"
        }
      ],
      "name": "apply",
      "outputs": [],
      "payable": false,
      "stateMutability": "nonpayable",
      "type": "function"
    },
    {
      "constant": false,
      "inputs": [
        {
          "name": "_loanId",
          "type": "uint256"
        }
      ],
      "name": "lend",
      "outputs": [],
      "payable": true,
      "stateMutability": "payable",
      "type": "function"
    }
  ],
  "bytecode": "0x608060405234801561001057600080fd5b506000808190555061045d806100276000396000f300608060405260043610610057576000357c0100000000000000000000000000000000000000000000000000000000900463ffffffff168063a6aa57ce1461005c578063d5cc5a511461007c578063e1ec3c68146100a9575b600080fd5b61007a6004803603810190808035906020019092919050505061015e565b005b34801561008857600080fd5b506100a760048036038101908080359060200190929190505050610249565b005b3480156100b557600080fd5b506100d4600480360381019080803590602001909291905050506103bb565b604051808681526020018581526020018481526020018373ffffffffffffffffffffffffffffffffffffffff1673ffffffffffffffffffffffffffffffffffffffff1681526020018273ffffffffffffffffffffffffffffffffffffffff1673ffffffffffffffffffffffffffffffffffffffff1681526020019550505050505060405180910390f35b336001600083815260200190815260200160002060040160006101000a81548173ffffffffffffffffffffffffffffffffffffffff021916908373ffffffffffffffffffffffffffffffffffffffff1602179055506001600082815260200190815260200160002060030160009054906101000a900473ffffffffffffffffffffffffffffffffffffffff1673ffffffffffffffffffffffffffffffffffffffff166108fc60016000848152602001908152602001600020600101549081150290604051600060405180830381858888f19350505050158015610245573d6000803e3d6000fd5b5050565b7fa9c3652b7b30738202ca8a98a7e68da9bf30ef15a839696cc637ef7bcccf14306000546040518082815260200191505060405180910390a160a0604051908101604052806000548152602001670de0b6b3a764000083028152602001600081526020013373ffffffffffffffffffffffffffffffffffffffff168152602001600073ffffffffffffffffffffffffffffffffffffffff16815250600160008054815260200190815260200160002060008201518160000155602082015181600101556040820151816002015560608201518160030160006101000a81548173ffffffffffffffffffffffffffffffffffffffff021916908373ffffffffffffffffffffffffffffffffffffffff16021790555060808201518160040160006101000a81548173ffffffffffffffffffffffffffffffffffffffff021916908373ffffffffffffffffffffffffffffffffffffffff160217905550905050600080815480929190600101919050555050565b60016020528060005260406000206000915090508060000154908060010154908060020154908060030160009054906101000a900473ffffffffffffffffffffffffffffffffffffffff16908060040160009054906101000a900473ffffffffffffffffffffffffffffffffffffffff169050855600a165627a7a7230582026cac9fd46d5905c1c66eee1add38b8c089af622a0f31c3dd10cadd324bcd6cf0029",
  "source": "pragma solidity ^0.4.7;\n\ncontract deCapital {\n    \n    uint loanCount;\n    mapping (uint => Loan) public loans;\n    \n    struct Loan {\n        uint loanId;\n        uint amount;\n        uint rate;\n        address borrower;\n        address lender;\n    }\n    \n    event Applied(uint loanId); \n    \n    constructor() public {\n        loanCount = 0;\n    }\n    \n    /*  Function allows users to ask for a specific amount in eth.\n        Amount is converted to wei \n    */\n    function apply(uint _amount) public {\n        emit Applied(loanCount);\n        loans[loanCount] = Loan({loanId: loanCount, amount: _amount * 10**18, rate: 0, borrower: msg.sender, lender: 0});\n        loanCount++;  \n    }\n    \n    function lend(uint _loanId) \n        public \n        payable \n    {\n        loans[_loanId].lender = msg.sender;\n        loans[_loanId].borrower.transfer(loans[_loanId].amount);\n    }\n}",
  "sourcePath": "/home/void/deCapital/contracts/Loan.sol",
  "compiler": {
    "name": "solc",
    "version": "0.4.24+commit.e67f0147.Emscripten.clang"
  },
  "schemaVersion": "2.0.1",
  "updatedAt": "2018-08-25T02:24:28.999Z"
}