{
  "contractName": "deCapital",
  "abi": [
    {
      "constant": true,
      "inputs": [],
      "name": "loanCount",
      "outputs": [
        {
          "name": "",
          "type": "uint256"
        }
      ],
      "payable": false,
      "stateMutability": "view",
      "type": "function"
    },
    {
      "constant": true,
      "inputs": [
        {
          "name": "",
          "type": "uint256"
        }
      ],
      "name": "loans",
      "outputs": [
        {
          "name": "loanId",
          "type": "uint256"
        },
        {
          "name": "amount",
          "type": "uint256"
        },
        {
          "name": "rate",
          "type": "uint256"
        },
        {
          "name": "borrower",
          "type": "address"
        },
        {
          "name": "lender",
          "type": "address"
        }
      ],
      "payable": false,
      "stateMutability": "view",
      "type": "function"
    },
    {
      "inputs": [],
      "payable": false,
      "stateMutability": "nonpayable",
      "type": "constructor"
    },
    {
      "anonymous": false,
      "inputs": [
        {
          "indexed": false,
          "name": "loanId",
          "type": "uint256"
        }
      ],
      "name": "Applied",
      "type": "event"
    },
    {
      "constant": false,
      "inputs": [
        {
          "name": "_amount",
          "type": "uint256"
        }
      ],
      "name": "apply",
      "outputs": [],
      "payable": false,
      "stateMutability": "nonpayable",
      "type": "function"
    },
    {
      "constant": false,
      "inputs": [
        {
          "name": "_loanId",
          "type": "uint256"
        }
      ],
      "name": "lend",
      "outputs": [],
      "payable": true,
      "stateMutability": "payable",
      "type": "function"
    },
    {
      "constant": true,
      "inputs": [],
      "name": "getLoanCount",
      "outputs": [
        {
          "name": "loanCount_",
          "type": "uint256"
        }
      ],
      "payable": false,
      "stateMutability": "view",
      "type": "function"
    }
  ],
  "bytecode": "0x608060405234801561001057600080fd5b50600080819055506104d8806100276000396000f30060806040526004361061006d576000357c0100000000000000000000000000000000000000000000000000000000900463ffffffff1680635219681214610072578063a6aa57ce1461009d578063ce63094d146100bd578063d5cc5a51146100e8578063e1ec3c6814610115575b600080fd5b34801561007e57600080fd5b506100876101ca565b6040518082815260200191505060405180910390f35b6100bb600480360381019080803590602001909291905050506101d3565b005b3480156100c957600080fd5b506100d26102be565b6040518082815260200191505060405180910390f35b3480156100f457600080fd5b50610113600480360381019080803590602001909291905050506102c4565b005b34801561012157600080fd5b5061014060048036038101908080359060200190929190505050610436565b604051808681526020018581526020018481526020018373ffffffffffffffffffffffffffffffffffffffff1673ffffffffffffffffffffffffffffffffffffffff1681526020018273ffffffffffffffffffffffffffffffffffffffff1673ffffffffffffffffffffffffffffffffffffffff1681526020019550505050505060405180910390f35b60008054905090565b336001600083815260200190815260200160002060040160006101000a81548173ffffffffffffffffffffffffffffffffffffffff021916908373ffffffffffffffffffffffffffffffffffffffff1602179055506001600082815260200190815260200160002060030160009054906101000a900473ffffffffffffffffffffffffffffffffffffffff1673ffffffffffffffffffffffffffffffffffffffff166108fc60016000848152602001908152602001600020600101549081150290604051600060405180830381858888f193505050501580156102ba573d6000803e3d6000fd5b5050565b60005481565b7fa9c3652b7b30738202ca8a98a7e68da9bf30ef15a839696cc637ef7bcccf14306000546040518082815260200191505060405180910390a160a0604051908101604052806000548152602001670de0b6b3a764000083028152602001600081526020013373ffffffffffffffffffffffffffffffffffffffff168152602001600073ffffffffffffffffffffffffffffffffffffffff16815250600160008054815260200190815260200160002060008201518160000155602082015181600101556040820151816002015560608201518160030160006101000a81548173ffffffffffffffffffffffffffffffffffffffff021916908373ffffffffffffffffffffffffffffffffffffffff16021790555060808201518160040160006101000a81548173ffffffffffffffffffffffffffffffffffffffff021916908373ffffffffffffffffffffffffffffffffffffffff160217905550905050600080815480929190600101919050555050565b60016020528060005260406000206000915090508060000154908060010154908060020154908060030160009054906101000a900473ffffffffffffffffffffffffffffffffffffffff16908060040160009054906101000a900473ffffffffffffffffffffffffffffffffffffffff169050855600a165627a7a72305820551a4b5c4aacc5cbb4efe2cef77738f4b44a57798601c357d735c982a9df069a0029",
  "source": "pragma solidity ^0.4.7;\n\ncontract deCapital {\n    \n    uint public loanCount;\n    mapping (uint => Loan) public loans;\n    \n    struct Loan {\n        uint loanId;\n        uint amount;\n        uint rate;\n        address borrower;\n        address lender;\n    }\n    \n    event Applied(uint loanId); \n    \n    constructor() public {\n        loanCount = 0;\n    }\n    \n    /*  Function allows users to ask for a specific amount in eth.\n        Amount is converted to wei \n    */\n    function apply(uint _amount) public {\n        emit Applied(loanCount);\n        loans[loanCount] = Loan({loanId: loanCount, amount: _amount * 10**18, rate: 0, borrower: msg.sender, lender: 0});\n        loanCount++;  \n    }\n    \n    function lend(uint _loanId) \n        public \n        payable \n    {\n        loans[_loanId].lender = msg.sender;\n        loans[_loanId].borrower.transfer(loans[_loanId].amount);\n    }\n\n    function getLoanCount() public view \n            returns (uint loanCount_) \n    {\n        loanCount_ = loanCount;\n    } \n}",
  "sourcePath": "/home/void/deCapital/contracts/Loan.sol",
  "compiler": {
    "name": "solc",
    "version": "0.4.24+commit.e67f0147.Emscripten.clang"
  },
  "schemaVersion": "2.0.1",
  "updatedAt": "2018-08-26T02:44:53.818Z"
}